:020000040000FA
:040000000DEF00F010
:02000800FFD027
:08001800FFD0000E936EFF0EF5
:10002000816E050E006F949C948EAC6AAB6AAB8EA9
:10003000AB88AC8AAC98AC84810EAF6EAE50AE503B
:10004000016BD3D898D8F26A870ED56E9AD8000E75
:10005000816EACD80F0AFDE1A9D80F0AFAE100EED3
:1000600008F0006A016AA2D80F0AF3E00450040AFB
:100070000AE00450050A01E199D804500026EE6E0A
:10008000014EE7D7F0D781800A50F66EA96E0B506B
:10009000F76E0CC0F8FF00EE0DF00950016ED8B4F9
:1000A000FF00818208500708D4E3818EFA6AFB6A58
:1000B0000844F92607D00CD013D022D02CD035D04C
:1000C00007D03ED0010E0A6E000E0B6E040E41D01A
:1000D0000900F5CFEEFF012EFBD70950050F39D0EF
:1000E000F80EF616080EEECFF5FF0D00E82EFBD742
:1000F0000A00840EA66E25D80900012EF1D728D05B
:10010000940EA66E1ED8400EF626E86AF722F82254
:10011000012EF6D71DD0A66AA680A8CFEEFFA92A89
:10012000012EF9D70950050F14D0EECFA8FF040E09
:10013000A66E07D8A6B2FED7A92A012EF6D708D0F8
:1001400008D0550EA76EAA0EA76EA6820000120058
:10015000010E016E0F0E44D843D8006A00EE08F07D
:10016000EE50002631D8012EFBD7006C00502CD861
:10017000040E36D86ED7980ED76E960ED66EF294C1
:1001800012009EBA07D0F2B401D0FBD7004F0CD0BA
:10019000F2DFF7D7AE50ABB2CFEF00F01200AB9862
:1001A000AB880180AE501200FC6A2AD09EAAD6EF1E
:1001B00000F0AE50046EABB2DFEF00F01200AB986F
:1001C000AB880180AE501200056E0F0A06E00550A4
:1001D000040A03E00550050A02E1050E01D80550A6
:1001E000AD6EACA2F1EF00F01200420EF9DF12008A
:0C01F000520EF6DF1200550EF3DF120075
:06020000FBEC00F0FF0022
:020208001000E4
:020218001000D4
:020000040030CA
:0E000000FFFEFEFAFFFEFBFFFFFFFFFFFFFF0C
:00000001FF
