:020000040000FA
:040000000DEF00F010
:02000800FFD027
:08001800FFD0939E819E050EAE
:10002000006F949C948EAC6AAB6AAB8EAB88AC8A42
:10003000AC98AC84810EAF6EAE50AE50016BD1D88F
:1000400093D8F26A870ED56E96D8ACD80F0AFDE128
:10005000A9D80F0AFAE100EE08F0006A016AA2D8F6
:100060000F0AF3E00450040A0AE00450050A01E113
:1000700099D804500026EE6E014EE7D7F0D70A500B
:10008000F66EA96E0B50F76E0CC0F8FF00EE0DF087
:100090000950016ED8B4FF0008500708D6E3FA6A89
:1000A000FB6A0844F92607D00CD013D022D02CD0FC
:1000B00035D007D03ED0010E0A6E000E0B6E040E36
:1000C00041D00900F5CFEEFF012EFBD70950050FF7
:1000D00039D0F80EF616080EEECFF5FF0D00E82E1B
:1000E000FBD70A00840EA66E25D80900012EF1D791
:1000F00028D0940EA66E1ED8400EF626E86AF72287
:10010000F822012EF6D71DD0A66AA680A8CFEEFF52
:10011000A92A012EF9D70950050F14D0EECFA8FF58
:10012000040EA66E07D8A6B2FED7A92A012EF6D7CE
:1001300008D008D0550EA76EAA0EA76EA6820000A2
:100140001200010E016E0F0E47D846D8006A00EE6D
:1001500008F0EE50002634D8012EFBD7006C00507A
:100160002FD8040E39D871D7980ED76E960ED66E4A
:10017000F294937E12009EBA07D0F2B401D0FBD75E
:10018000004F0CD0F1DFF7D7AE50ABB2C9EF00F0A3
:100190001200AB98AB880181AE501200939E819EF5
:1001A000FC6A2ED09EAAD2EF00F0AE50046EABB225
:1001B000DBEF00F01200AB98AB880181AE5012006B
:1001C000056E0F0A06E00550040A03E00550050A13
:1001D00002E1050E01D80550AD6EACA2EDEF00F0C6
:1001E0001200420EF9DF1200520EF6DF1200550E19
:0401F000F3DF120027
:06020000F7EC00F0FF0026
:020208001000E4
:020218001000D4
:020000040030CA
:0E000000FFFEFEFAFFFEFBFFFFFFFFBFFFFF4C
:00000001FF
