:0400000005EF06F012
:1000080000C019F001C018F002C017F003C016F0C4
:1000180004C015F0E1CF1CF0E2CF1DF0E9CF1AF0D3
:10002800EACF1BF0F2A201D04FDA19C000F018C0D5
:1000380001F017C002F016C003F015C004F01AC092
:10004800E9FF1BC0EAFF1CC0E1FF1DC0E2FF110071
:100058005C0E7B24E96E000E7C20EA6EEE50010AED
:1000680023E17BC000F07CC001F00036009001362F
:100078004C0E0024E16E000E0120E26E2C0E0024CE
:10008800E96E000E0120EA6E240E0024D96E000EDF
:100098000120DA6EDE50EE5C006EDE50EE58016E26
:1000A80000C0E6FF01C0E6FF5C0E7B24E96E000E8F
:1000B8007C20EA6EEE50000A23E17BC000F07CC091
:1000C80001F00036009001364C0E0024E16E000E5F
:1000D8000120E26E240E0024E96E000E0120EA6E73
:1000E8002C0E0024D96E000E0120DA6EDE50EE5C74
:1000F800006EDE50EE58016E00C0E6FF01C0E6FF5C
:020108001200E3
:10010A00F18CF292F288766A756A616A606A070E01
:04011A00626E1200FF
:10011E0085D181A202D0800E752662C001F06206E2
:10012E000150000A03E07532759E04D0010E766E02
:10013E00050E626E7FD181A202D0800E612662C052
:10014E0001F062060150000A03E06132619E08D0A0
:10015E00020E766E6132619E6132619E070E626E94
:10016E0069D181A202D0800E602662C001F06206C3
:10017E000150000A03E06032609E4FD1766A070E8E
:10018E00626E7550700AD8A444D1000E615CD8A07E
:10019E003AD161500308D8A036D1800E6014016E9A
:1001AE000150800A2CE161C000F0000E016E003695
:1001BE00009001362C0E0024026E000E0120036EFC
:1001CE007F0E6014006E02C0E9FF03C0EAFF00500C
:1001DE00EE5C006E000EEE58016E02C0E1FF03C031
:1001EE00E2FF00C0E6FF01C0E6FF5C0EE16E000E0E
:1001FE00E26E6150E126D8B0E22AE66A29D061C0EB
:10020E0000F0000E016E0036009001362C0E002418
:10021E00026E000E0120036E02C0E9FF03C0EAFF6A
:10022E006050EE24006E000EEE20016E02C0E1FF63
:10023E0003C0E2FF00C0E6FF01C0E6FF5C0EE16E08
:10024E00000EE26E6150E126D8B0E22A010EE66E93
:10025E0061C000F0000E016E0036009001362C0ECB
:10026E000024E96E000E0120EA6EEECF01F0EECF13
:10027E0002F00250030802E10150E80815E2800E78
:10028E006014016E0150800A0FE161C000F0000E93
:10029E00016E0036009001362C0E0024E16E000E29
:1002AE000120E26EE66AE66A61C000F0000E016EA1
:1002BE000036009001362C0E0024E96E000E01204F
:1002CE00EA6EEECF01F0EECF02F00250030802E12B
:1002DE000150B00817E2800E6014016E0150000A42
:1002EE0011E161C000F0000E016E00360090013683
:1002FE002C0E0024E16E000E0120E26EB10EE66EB1
:10030E00030EE66E61C07BF0000E7C6E9EDE61C059
:10031E0005F0000E066E0536059006364C0E0524C9
:10032E00E96E000E0620EA6EEECF03F0EECF04F07B
:10033E0003C000F004C001F001320032019E013210
:10034E000032019E00C065F001C066F0340E052437
:10035E00E16E000E0620E26E00C0E6FF01C0E6FF71
:10036E0061C000F0000E016E0036009001362C0EBA
:10037E000024E96E000E0120EA6EEECF03F0EECF00
:10038E0004F0240E0024D96E000E0120DA6EDECFAA
:10039E0001F0DECF02F00450021802E10150031802
:1003AE000FE061C000F0000E016E003600900136C5
:1003BE00340E0024E16E000E0120E26EE66AE66A5B
:1003CE0061C000F0000E016E003600900136540E32
:1003DE000024E16E000E0120E26E65C0E6FF66C0ED
:1003EE00E6FF636A646A61C000F0000E016E0036BB
:1003FE0000900136670E0024E16E000E0120E26EC1
:10040E00E66AE66A06D06150090A03E1FA6A00EF6D
:10041E0000F0756A616A606A0DD00CD07650000AE1
:10042E00D8B477D67650010AD8B485D67650020A5B
:06043E00D8B497D61200AD
:1004440077C000F078C001F00036009001363C0E11
:100454000024026E000E0120036E02C0E9FF03C0F7
:10046400EAFF040EEE5C006E000EEE58016E02C050
:10047400E1FF03C0E2FF00C0E6FF01C0E6FF77C072
:1004840000F078C001F00036009001363C0E0024E4
:10049400E96E000E0120EA6EEECF01F0EECF02F01D
:1004A40002501F0802E1015040080FE277C000F03B
:1004B40078C001F00036009001363C0E0024E16E55
:0C04C400000E0120E26EE66AE66A1200FB
:0804D00026DEF292F288120010
:1004D800F0D02AD080948082809080988086808412
:1004E80047D080948082809080988096808440D085
:1004F80080948092809080888096808439D080947F
:100508008092808080888096808432D08094809287
:1005180080808098809680842BD080948092809070
:1005280080988086808424D0000E7A1802E1000E1C
:100538007918D0E0000E7A1802E1010E7918D1E09E
:10054800000E7A1802E1020E7918D2E0000E7A182D
:1005580002E1030E7918D3E0000E7A1802E1040EC6
:100568007918D4E0000E7A1802E1050E7918D5E062
:10057800B4D02AD082928280809A829682848282A3
:1005880047D082928280809A82968294828240D0DA
:1005980082928290809A82868294828239D08292D4
:1005A8008290808A82868294828232D082928290DD
:1005B800808A8296829482822BD082928290809ABC
:1005C80082968284828224D0000E7A1802E1000E7C
:1005D8007918D0E0000E7A1802E1010E7918D1E0FE
:1005E800000E7A1802E1020E7918D2E0000E7A188D
:1005F80002E1030E7918D3E0000E7A1802E1040E26
:100608007918D4E0000E7A1802E1050E7918D5E0C1
:1006180064D02AD0829C828A82988194828E828C2D
:1006280047D0829C828A82988194829E828C40D014
:10063800829C829A82988184829E828C39D0829C04
:10064800829A82888184829E828C32D0829C829A0D
:1006580082888194829E828C2BD0829C829A8298F6
:100668008194828E828C24D0000E7A1802E1000ECA
:100678007918D0E0000E7A1802E1010E7918D1E05D
:10068800000E7A1802E1020E7918D2E0000E7A18EC
:1006980002E1030E7918D3E0000E7A1802E1040E85
:1006A8007918D4E0000E7A1802E1050E7918D5E021
:1006B80014D0000E781802E1000E7718D8B409D7C4
:1006C800000E781802E1010E7718D8B452D7000E40
:0C06D800781802E1020E77189CE0120076
:1006E400806A816A826A926A030E936E946A070E24
:1006F400C16E09DD2C6A2D6A2E6A2F6A306A316A4E
:10070400326A336AE80E246E030E256EE80E266EF6
:10071400030E276EE80E286E030E296EE80E2A6E6D
:10072400030E2B6EF40E3C6E010E3D6EF40E3E6E07
:10073400010E3F6EF40E406E010E416EF40E426ED9
:10074400010E436E580E206E020E216E3C0E1E6E7C
:10075400000E1F6E4C6A4D6A4E6A4F6A506A516AA7
:10076400526A536A010E5C6E010E5D6E010E5E6E7E
:10077400010E5F6EF40E446E010E456EF40E466E6D
:10078400010E476EF40E486E010E496EF40E4A6E69
:10079400010E4B6E676A686A696A6A6A6B6A6C6A98
:1007A4006D6A6E6A736A746AD09EF28EF28C12005D
:1007B40077C000F078C001F00036009001363C0E9E
:1007C4000024E96E000E0120EA6EEECF01F0EECFB8
:1007D40002F0000E021802E1000E0118D8A40AD299
:1007E40077C000F078C001F0003600900136340E76
:1007F4000024E96E000E0120EA6EEECF01F0EECF88
:1008040002F0000E006E0250005C02E1015000088C
:10081400D8B07ED077C000F078C001F000360090E8
:100824000136340E0024E96E000E0120EA6EEECF8C
:1008340001F0EECF02F0000E006E0250005C02E107
:1008440001501F0811E277C000F078C001F00036B3
:1008540000900136340E0024E16E000E0120E26E99
:100864001F0EE66E000EE66E77C000F078C001F051
:100874000036009001363C0E0024E16E000E01208B
:10088400E26E440E0024E96E000E0120EA6E320E80
:10089400EE5C006E000EEE58016E00C0E6FF01C073
:1008A400E6FF77C000F078C001F000360090013612
:1008B400440E0024E16E000E0120E26E3C0E002482
:1008C400E96E000E0120EA6EEECFE6FFEECFE6FF02
:1008D40077C000F078C001F0003600900136340E85
:1008E4000024026E000E0120036E02C0E9FF03C063
:1008F400EAFF010EEE5C006E000EEE58016E02C0BF
:10090400E1FF03C0E2FF00C0E6FF01C0E6FFB8D08C
:1009140077C000F078C001F0003600900136540E24
:100924000024E96E000E0120EA6EEECF01F0EECF56
:1009340002F0000E006E0250005C02E1015000085B
:10094400D8B09ED077C000F078C001F00036009097
:100954000136540E0024E96E000E0120EA6EEECF3B
:1009640001F0EECF02F0000E006E0250005C02E1D6
:1009740001501F0811E277C000F078C001F0003682
:1009840000900136540E0024E16E000E0120E26E48
:100994001F0EE66E000EE66E77C000F078C001F020
:1009A4000036009001364C0E0024E96E000E012042
:1009B400EA6EEECF03F0EECF04F03C0E0024D96EC5
:1009C400000E0120DA6EDECF01F0DECF02F004501B
:1009D400021802E10150031853E177C000F078C017
:1009E40001F00036009001363C0E0024E16E000E4A
:1009F4000120E26E440E0024E96E000E0120EA6E2E
:100A0400500EEE24006E000EEE20016E00C0E6FFD4
:100A140001C0E6FF77C000F078C001F00036009016
:100A24000136440E0024E16E000E0120E26E3C0EFD
:100A34000024E96E000E0120EA6EEECFE6FFEECF51
:100A4400E6FF77C000F078C001F000360090013670
:100A5400540E0024026E000E0120036E02C0E9FF52
:100A640003C0EAFF010EEE5C006E000EEE58016E4C
:100A740002C0E1FF03C0E2FF00C0E6FF01C0E6FFE1
:100A840077C000F078C001F00036009001363C0ECB
:100A94000024E96E000E0120EA6EEECF01F0EECFE5
:100AA40002F00250215C02E10150205C30E377C087
:100AB40000F078C001F00036009001363C0E0024AE
:100AC400E96E000E0120EA6EEECF01F0EECF02F0E7
:100AD400270E025C02E1100E015C18E277C000F000
:100AE40078C001F00036009001363C0E0024E96E17
:100AF400000E0120EA6EEECF01F0EECF02F00250BC
:100B0400215C02E10150205C01E201D022D077C0D7
:100B140000F078C001F00036009001363C0E00244D
:100B2400E16E000E0120E26E20C0E6FF21C0E6FF68
:100B340077C000F078C001F0003600900136440E12
:100B44000024E16E000E0120E26E20C0E6FF21C009
:100B5400E6FF77C000F078C001F00036009001365F
:100B64003C0E0024E96E000E0120EA6EEECF01F087
:100B7400EECF02F01F50025C02E11E50015C18E34C
:100B840077C000F078C001F00036009001363C0ECA
:100B94000024E96E000E0120EA6EEECF01F0EECFE4
:100BA40002F00250270802E10150100801E322D0AC
:100BB40077C000F078C001F00036009001363C0E9A
:100BC4000024E16E000E0120E26E1EC0E6FF1FC08D
:100BD400E6FF77C000F078C001F0003600900136DF
:100BE400440E0024E16E000E0120E26E1EC0E6FFFA
:060BF4001FC0E6FF120025
:100BFA000900F5CFE6FF0006FBE10106F9E1120064
:100C0A006CDD226A236A000E235C02E1040E225C78
:100C1A00D8B0EAD122C000F023C001F0003600901B
:100C2A0001362C0E0024E96E000E0120EA6EEECF8A
:100C3A0003F0EECF04F0240E0024D96E000E01203A
:100C4A00DA6EDECF01F0DECF02F00450021802E1C4
:100C5A0001500318D8B45FD122C000F023C001F0BC
:100C6A000036009001363C0E0024E96E000E012089
:100C7A00EA6EEECF01F0EECF02F0000E021802E1AA
:100C8A00000E0118D8A441D122C000F023C001F0FF
:100C9A00003600900136240E0024E96E000E012071
:100CAA00EA6EEECF03F0EECF04F02C0E0024D96EDC
:100CBA00000E0120DA6EDECF01F0DECF02F0025024
:100CCA00045C02E10150035CD8B07FD05C0E2224A0
:100CDA00E16E000E2320E26E010EE66E22C000F0E5
:100CEA0023C001F0003600900136240E0024026E63
:100CFA00000E0120036E02C0E9FF03C0EAFF010EE5
:100D0A00EE24006E000EEE20016E02C0E1FF03C069
:100D1A00E2FF00C0E6FF01C0E6FF6F0E2224016E6B
:100D2A00000E2320026E01C0E9FF02C0EAFFEE04B2
:100D3A00006E01C0E1FF02C0E2FF00C0E6FF010E43
:100D4A00505E000E515A22C000F023C001F0003656
:100D5A0000900136670E0024026E000E0120036E19
:100D6A0002C0E9FF03C0EAFF010EEE24006E000E86
:100D7A00EE20016E02C0E1FF03C0E2FF00C0E6FF01
:100D8A0001C0E6FF6F0E2224E96E000E2320EA6EF0
:100D9A00EE50050808E26F0E2224E16E000E2320B1
:100DAA00E26E050EE66E22C077F023C078F06F0E71
:100DBA002224E96E000E2320EA6EEECF79F0000EAF
:100DCA007A6E000E7A6E6CEC02F022C000F023C03C
:100DDA0001F0003600900136240E0024E96E000E60
:100DEA000120EA6EEECF03F0EECF04F02C0E0024C1
:100DFA00D96E000E0120DA6EDECF01F0DECF02F0EE
:100E0A000450025C02E10350015CD8B07ED05C0E53
:100E1A002224E16E000E2320E26EE66A22C000F070
:100E2A0023C001F0003600900136240E0024026E21
:100E3A00000E0120036E02C0E9FF03C0EAFF010EA3
:100E4A00EE5C006E000EEE58016E02C0E1FF03C0B8
:100E5A00E2FF00C0E6FF01C0E6FF6F0E2224016E2A
:100E6A00000E2320026E01C0E9FF02C0EAFFEE5025
:100E7A00010F006E01C0E1FF02C0E2FF00C0E6FF01
:100E8A0022C000F023C001F0003600900136670E40
:100E9A000024026E000E0120036E02C0E9FF03C0A7
:100EAA00EAFF010EEE24006E000EEE20016E02C073
:100EBA00E1FF03C0E2FF00C0E6FF01C0E6FF010E4A
:100ECA00505E000E515A6F0E2224E96E000E232046
:100EDA00EA6EEE50050807E26F0E2224E16E000E5C
:100EEA002320E26EE66A22C077F023C078F06F0E04
:100EFA002224E96E000E2320EA6EEECF79F0000E6E
:100F0A007A6E000E7A6E6CEC02F022C077F023C083
:100F1A0078F04BDC49D022C000F023C001F0003643
:100F2A00009001362C0E0024E96E000E0120EA6EB4
:100F3A00EECF03F0EECF04F0240E0024D96E000E9B
:100F4A000120DA6EDECF01F0DECF02F00450021883
:100F5A0002E10150031828E122C000F023C001F089
:100F6A000036009001363C0E0024E96E000E012086
:100F7A00EA6EEECF01F0EECF02F0000E021802E1A7
:100F8A00000E011811E122C000F023C001F0003662
:100F9A00009001363C0E0024E16E000E0120E26E44
:100FAA002C0EE66E010EE66E22C000F023C001F0A0
:100FBA000036009001363C0E0024E96E000E012036
:100FCA00EA6EEECF01F0EECF02F0000E021802E157
:100FDA00000E011806E022C077F023C078F022EC58
:0C0FEA0002F0224A232A0FD60CD6FFD7B3
:020000040030CA
:0D00010026020EFF0080FF0FC00FE00F4031
:00000001FF
